:020000040000fa
:080000000002040000000000f2
:020000040000fa
:04000800740300007d
:020000040000fa
:04000c007403000079
:020000040000fa
:040010007403000075
:020000040000fa
:040014007403000071
:020000040000fa
:04001800740300006d
:020000040000fa
:04001c007403000069
:020000040000fa
:040020007403000065
:020000040000fa
:040024007403000061
:020000040000fa
:04002800740300005d
:020000040000fa
:04002c007403000059
:020000040000fa
:040030007403000055
:020000040000fa
:040034007403000051
:020000040000fa
:04003800c8020000fa
:020000040000fa
:04003c007403000049
:020000040000fa
:040040007403000045
:020000040000fa
:040044007403000041
:020000040000fa
:04004800740300003d
:020000040000fa
:04004c007403000039
:020000040000fa
:040050004e0300005b
:020000040000fa
:040054007403000031
:020000040000fa
:04005800740300002d
:020000040000fa
:04005c007403000029
:020000040000fa
:04006000e4020000b6
:020000040000fa
:040064007403000021
:020000040000fa
:04006800740300001d
:020000040000fa
:04006c007403000019
:020000040000fa
:040070007403000015
:020000040000fa
:040074007403000011
:020000040000fa
:04007800740300000d
:020000040000fa
:04007c007403000009
:020000040000fa
:040080007403000005
:020000040000fa
:040084007403000001
:020000040000fa
:0400880074030000fd
:020000040000fa
:04008c0074030000f9
:020000040000fa
:0400900074030000f5
:020000040000fa
:040094008c100000cc
:020000040000fa
:0400980074030000ed
:020000040000fa
:04009c0074030000e9
:020000040000fa
:0400a00074030000e5
:020000040000fa
:0400a40074030000e1
:020000040000fa
:0400a80074030000dd
:020000040000fa
:0400ac0074030000d9
:020000040000fa
:0400b00074030000d5
:020000040000fa
:0400b40074030000d1
:020000040000fa
:0400b80074030000cd
:020000040000fa
:0400bc0074030000c9
:020000040000fa
:0400c00074030000c5
:020000040000fa
:0400c40074030000c1
:020000040000fa
:0400c80074030000bd
:020000040000fa
:0400cc0074030000b9
:020000040000fa
:0400d00074030000b5
:020000040000fa
:0400d40074030000b1
:020000040000fa
:0400d80074030000ad
:020000040000fa
:0400dc0074030000a9
:020000040000fa
:0400e00074030000a5
:020000040000fa
:0400e40074030000a1
:020000040000fa
:0400e800740300009d
:020000040000fa
:0400ec007403000099
:020000040000fa
:0400f0007403000095
:020000040000fa
:0400f4007403000091
:020000040000fa
:0400f800740300008d
:020000040000fa
:0400fc007403000089
:020000040000fa
:040100007403000084
:020000040000fa
:040104007403000080
:020000040000fa
:04010800740300007c
:020000040000fa
:04010c007403000078
:020000040000fa
:040110007403000074
:020000040000fa
:040114007403000070
:020000040000fa
:04011800740300006c
:020000040000fa
:04011c007403000068
:020000040000fa
:040120007403000064
:020000040000fa
:040124007403000060
:020000040000fa
:04012800740300005c
:020000040000fa
:04012c007403000058
:020000040000fa
:040130007403000054
:020000040000fa
:040134007403000050
:020000040000fa
:04013800740300004c
:020000040000fa
:04013c007403000048
:020000040000fa
:040140007403000044
:020000040000fa
:04020800740300007b
:020000040000fa
:04020c007403000077
:020000040000fa
:040210007403000073
:020000040000fa
:04021400740300006f
:020000040000fa
:04021800740300006b
:020000040000fa
:04021c007403000067
:020000040000fa
:040220007403000063
:020000040000fa
:04022400740300005f
:020000040000fa
:04022800740300005b
:020000040000fa
:04022c007403000057
:020000040000fa
:040230007403000053
:020000040000fa
:04023400740300004f
:020000040000fa
:04023800c8020000f8
:020000040000fa
:04023c007403000047
:020000040000fa
:040240007403000043
:020000040000fa
:04024400740300003f
:020000040000fa
:04024800740300003b
:020000040000fa
:04024c007403000037
:020000040000fa
:040250004e03000059
:020000040000fa
:04025400740300002f
:020000040000fa
:04025800740300002b
:020000040000fa
:04025c007403000027
:020000040000fa
:04026000e4020000b4
:020000040000fa
:04026400740300001f
:020000040000fa
:04026800740300001b
:020000040000fa
:04026c007403000017
:020000040000fa
:040270007403000013
:020000040000fa
:04027400740300000f
:020000040000fa
:04027800740300000b
:020000040000fa
:04027c007403000007
:020000040000fa
:040280007403000003
:020000040000fa
:0402840074030000ff
:020000040000fa
:0402880074030000fb
:020000040000fa
:04028c0074030000f7
:020000040000fa
:0402900074030000f3
:020000040000fa
:040294008c100000ca
:020000040000fa
:0402980074030000eb
:020000040000fa
:04029c0074030000e7
:020000040000fa
:0402a00074030000e3
:020000040000fa
:0402a40074030000df
:020000040000fa
:0402a80074030000db
:020000040000fa
:0402ac0074030000d7
:020000040000fa
:0402b00074030000d3
:020000040000fa
:0402b40074030000cf
:020000040000fa
:0402b80074030000cb
:020000040000fa
:0402bc0074030000c7
:020000040000fa
:0402c00074030000c3
:020000040000fa
:0402c40074030000bf
:020000040000fa
:0402c80074030000bb
:020000040000fa
:0402cc0074030000b7
:020000040000fa
:0402d00074030000b3
:020000040000fa
:0402d40074030000af
:020000040000fa
:0402d80074030000ab
:020000040000fa
:0402dc0074030000a7
:020000040000fa
:0402e00074030000a3
:020000040000fa
:0402e400740300009f
:020000040000fa
:0402e800740300009b
:020000040000fa
:0402ec007403000097
:020000040000fa
:0402f0007403000093
:020000040000fa
:0402f400740300008f
:020000040000fa
:0402f800740300008b
:020000040000fa
:0402fc007403000087
:020000040000fa
:040300007403000082
:020000040000fa
:04030400740300007e
:020000040000fa
:04030800740300007a
:020000040000fa
:04030c007403000076
:020000040000fa
:040310007403000072
:020000040000fa
:04031400740300006e
:020000040000fa
:04031800740300006a
:020000040000fa
:04031c007403000066
:020000040000fa
:040320007403000062
:020000040000fa
:04032400740300005e
:020000040000fa
:04032800740300005a
:020000040000fa
:04032c007403000056
:020000040000fa
:040330007403000052
:020000040000fa
:04033400740300004e
:020000040000fa
:04033800740300004a
:020000040000fa
:04033c007403000046
:020000040000fa
:040340007403000042
:020000040000fa
:100400002f1421000e1f24000e01880000000000a0
:10041000000020000000e000020032000001200087
:100420002002880014000700b10007000000e0006f
:1004300003003a00a06b21000100200002003700f9
:100440000000200001002000810f70000100320038
:1004500014000700000020000000e000020032004d
:100460000000020000000000c40b020000000000b9
:100470000040da000000fe004440a9000000200017
:100480000000e0000300320000002000a00188000e
:100490004440a800000006008a1f78008b1f7800e7
:1004a0000000060091018800800478000000eb0045
:1004b0001a003700e284440032a0b4009905ba0063
:1004c000e284440032a0b4009906ba00e2844400f9
:1004d00032a0b4000006eb00476fde00fd07b2005b
:1004e000636ce10003003a00ebff07000000eb0043
:1004f0000a003700606ce10004003a00005deb0088
:100500008b05e900fdff3e00040037006168e10053
:10051000010032000086eb000b00070019c7ba008b
:100520001905ba000e04e00003003a000a00e000da
:10053000e0ff3a0000000600fe07b2009e018800be
:100540008a047800f5ff3700395dba008b05e900b1
:100550000c003200295dba008b05e900080032006a
:100560000c00e00003003a00e284440032a0b40032
:10057000f5ff370019ddba008b05e900faff3a00f4
:100580008904e800e184440032a0b40000000600c1
:10059000809fbe000000fa008480a90050418000c6
:1005a00051418000a10090000100a20021009800ac
:1005b000504180008000eb00310098000080fa007c
:1005c0004f00be0000400600809fbe000000fa0001
:1005d00085c0a90070418000e00090008100e80023
:1005e0006100980070418000e00090007041800040
:1005f00040009000808f500021003a007041800040
:100600008000eb0061009800704180007141800023
:10061000a10090000100a20021009800704180001c
:100620008000eb00310098007041800020009000b5
:10063000e10f500007003a00704180001000900068
:10064000800078000000240000805000801c88009a
:1006500006003700704180001000780080007800ac
:100660000000240000805000801c88007041800041
:1006700071418000d10090004100980003003700d4
:10068000801c80000080e800801c88008de3a800aa
:100690000080fa004f00be00004006003600f8005f
:1006a000809fbe00829fbe00849fbe00869fbe00ca
:1006b0000000fa0040418000e10f500002003a00c3
:1006c00058060700010037009d0207000080fa006d
:1006d0004f03be004f02be004f01be004f00be00e0
:1006e0003600f900004006000040da000000fe007d
:1006f00000000500839f68000100e00002003d004b
:1007000060001000e08018000300e00002003d00df
:1007100060011100e0811900050007004f00e000b2
:1007200002003b0060001000e0801800000006009e
:100730006022b800060220000000d0008180d200b4
:100740000482d2008582d2000000a0000202520082
:1007500083825a00030031000202420083824a0071
:100760000000a1000603e900f3ff3a0000000600c4
:020000040000fa
:100770000400fa00000f7800110798009e0078002e
:1007800061418800604180009e009000010878006f
:100790004382a9004362a9004342a9004322a80062
:1007a0004302a80042c2a90042a2a80042e2a90056
:1007b0001112800030fe2f00008060008001b30025
:1007c0001012880011128000c0ff2f00008060000e
:1007d0000010a0001012880045e2a9002c43a800d8
:1007e000c642a900ca42a80041a2a9000080fa009e
:1007f000000006000200fa00000f78009540a800f3
:1008000041e2a8001e0078008000eb002100980063
:100810001e0078008000eb00110098001e00780098
:100820008000eb00410098001e00780001102000bd
:1008300031009800ca42a8000080fa0000000600bb
:100840000e00fa00889fbe0020079800320798002b
:100850004307980051079800640798002e00900005
:1008600010007800100798001e00900021c0b3000f
:10087000014878001e0090000002e8003e01900050
:10088000ce01900000002000f10f200082027800cd
:100890000301780080017800010078008382620003
:1008a000000061008000eb00c000dd0000002000bf
:1008b0000001be006128b800000171008181710053
:1008c000409cde00cf9cde0008407800004a7800a3
:1008d0001e0090000082e8003e019000ce019000d2
:1008e00000f02f0001002000820278000301780050
:1008f00080017800010078008382620000006100be
:100900008000eb00c000dd00000020000001be0000
:100910006128b8000001710081817100c818dd00f4
:100920004813de0006837000c89bde000640780096
:10093000004a78001e00900063004000be00900056
:100940008140780001487800ee00900000102000ff
:10095000808f5000020034000010200060079800d3
:100960001e00900063004000104078000004e0008a
:10097000100032001e00900063004000104078001c
:100980000080fb0001102000808050006e0090006d
:10099000808f500007003d001e0090006300400063
:1009a000104078000080fb00011020000080500003
:1009b000600798000000eb00000f78000900370086
:1009c0009e007800648040009e00900000804000ff
:1009d000de0090009e804000914078000148780041
:1009e0001e0fe8006e0090009e0f5000f4ff3e00c6
:1009f0002e00900020009000800078000120a000d0
:100a00002e009000210098006e009000e40040004d
:100a10002e00900031009800ca42a9001e009000ec
:100a2000104078000080fb00401288006e009000ab
:100a30004f04be000080fa00000006000e00fa001d
:100a4000889fbe002007980032079800430798004f
:100a500051079800640798003e019000ce01900075
:100a600000002000f10f200002027800030178004e
:100a7000800178000100780003026200000061003c
:100a80008000eb00c000dd00000020000001be007f
:100a90006120b8000001710081817100409cde007e
:100aa000cf9cde00084f78003e019000ce01900000
:100ab00000f02f00010020000202780003017800fe
:100ac00080017800010078000302620000006100ec
:100ad0008000eb00c000dd00000020000001be002f
:100ae0006120b8000001710081817100c818dd002b
:100af0004813de0006837000c89bde00164798008e
:100b00003e00900020479800ee009000001020006a
:100b1000808f5000040034002e009000011020004f
:100b200031009800030037002e009000ee00900086
:100b300031009800de0090002e00900051009800d7
:100b40002e0090008000eb0041009800ca42a900ee
:100b50003000200040128800000000002e009000ad
:100b600020009000610060000000e000fbff320008
:100b70002e00900020009000800078000100a1006d
:100b80002e009000210098001e00fb0040128800fb
:100b9000000000002e009000200090006100600026
:100ba0000000e000fbff32002e00900020009000cb
:100bb000800078000100a1002e0090002100980024
:100bc0001e4090000000fb00401288000000000062
:100bd0002e00900020009000610060000000e00006
:100be000fbff32002e009000200090008000780073
:100bf0000100a1002e009000210098002e409000de
:100c00000000fb0040128800000000002e00900051
:100c100020009000610060000000e000fbff320057
:100c20002e00900020009000800078000100a100bc
:100c30002e009000210098004822ef002e00900026
:100c400020009000800078000110a0002e0090008d
:100c5000210098004f04be000080fa00000006004a
:100c60000200fa00000f78001e00780020009000bb
:100c7000640060000000e00002003200100020006c
:100c8000270037001e0078002000900062006000fe
:100c90000000e000020032001000200020003700b9
:100ca000ca42a90050002000401288000000000045
:100cb0001e00780020009000610060000000e0004d
:100cc000fbff32001e0078002000900080007800ba
:100cd0000100a1001e007800210098004822ef00ca
:100ce000000000001e0078002000900061006000fd
:100cf0000000e000fbff32001e00780020009000a2
:100d0000800078000100a1001e00780021009800fa
:100d1000ca42a8001e007800100090006100600028
:100d20000080fa00000006000e00fa00400798005c
:100d300051079800620798005e009000e10f500094
:100d400011003a00ca42a900200620004012880083
:100d5000000000004e009000200090006100600044
:100d60000000e000fbff32004e00900020009000e9
:100d7000800078000100a1004e0090002100980042
:100d8000ca42a800ec0037005e009000e20f50005d
:100d90002e003a00ee00900011079800ca42a90008
:100da0005001200040128800000000004e0090001a
:100db00020009000610060000000e000fbff3200b6
:100dc0004e00900020009000800078000100a100fb
:100dd0004e009000210098000000eb00000f78000a
:100de000150037004822ef00000000004e00900080
:100df00020009000610060000000e000fbff320076
:100e00004e00900020009000800078000100a100ba
:100e10004e009000210098001e0078009e00900077
:100e200000804000ce00900091009000814078004a
:100e3000014878001e0fe8001e007800e30f500004
:100e4000e8ff3400ca42a800bb0037005e009000f3
:100e5000e30f500025003a00ee00900021079800b3
:100e6000ca42a90050002000401288000000000083
:100e70004e00900020009000610060000000e00043
:100e8000fbff32004e0090002000900080007800b0
:100e90000100a1004e009000210098004822ef00c0
:100ea000000000004e0090002000900061006000f3
:100eb0000000e000fbff32004e0090002000900098
:100ec000800078000100a1004e00900021009800f1
:100ed0004e00900010009000804078002e0090009e
:100ee00001487800ca42a800930037005e009000d5
:100ef000e40f500011003a00ca42a900600020002f
:100f000040128800000000004e0090002000900079
:100f1000610060000000e000fbff32004e00900026
:100f200020009000800078000100a1004e00900099
:100f300021009800ca42a8007f0037005e009000a0
:100f4000e60f500011003a00ca42a90040002000fc
:100f500040128800000000004e0090002000900029
:100f6000610060000000e000fbff32004e009000d6
:100f700020009000800078000100a1004e00900049
:100f800021009800ca42a8006b0037005e00900064
:100f9000e70f500045003a00ee009000310798003e
:100fa000ca42a9002005200040128800000000006d
:100fb0004e00900020009000610060000000e00002
:100fc000fbff32004e00900020009000800078006f
:100fd0000100a1004e009000210098003e0090000a
:100fe0000080e800104078000000fb0040128800fc
:100ff000000000004e0090002000900061006000a2
:101000000000e000fbff32004e0090002000900046
:10101000800078000100a1004e009000210098009f
:101020003e0090000000e800104078000000fb0047
:1010300040128800000000004e0090002000900048
:10104000610060000000e000fbff32004e009000f5
:1010500020009000800078000100a1004e00900068
:10106000210098003e009000104078000000fb0036
:1010700040128800000000004e0090002000900008
:10108000610060000000e000fbff32004e009000b5
:1010900020009000800078000100a1004e00900028
:1010a00021009800ca42a800230037005e0090008b
:1010b000e50f500020003a00ca42a90010002000ad
:1010c00040128800000000004e00900020009000b8
:1010d000610060000000e000fbff32004e00900065
:1010e00020009000800078000100a1004e009000d8
:1010f000210098006e009000104078000000fb0076
:1011000040128800000000004e0090002000900077
:10111000610060000000e000fbff32004e00900024
:1011200020009000800078000100a1004e00900097
:1011300021009800ca42a8000080fa0000000600c2
:101140000000fa008540a900604180002000900066
:10115000640060000000e000230032006041800075
:10116000411280001100980060418000c000900092
:101170008100e8004100980060418000c0009000bc
:101180006041800030009000808f500009003d00d9
:101190006041800090007800604180004000900035
:1011a00000804000104078000000fb0040128800e2
:1011b0003b0037006041800061418000a100900049
:1011c0000120a10021009800604180008000eb0018
:1011d00031009800604180008000eb0041009800e1
:1011e000ca42a8002e003700604180002000900015
:1011f000620060000000e0002100320060418000d9
:10120000d0009000604180004000900000804000cd
:1012100041128000814078000148780060418000e0
:10122000c00090008100e80041009800604180000b
:10123000c00090006041800030009000808f50001e
:1012400002003d004822ef00150037006041800099
:1012500061418000a10090000110a10021009800d0
:10126000604180008000eb00310098006041800008
:101270008000eb0041009800ca42a8000800370037
:101280006041800061418000a10090000100a00049
:1012900021009800604180004112800011009800f8
:1012a0000080fa00000006000000fa000000eb00d9
:1012b000207c88000000eb00307c88000000eb0000
:1012c000407c88000000eb00507c88000000eb00b0
:1012d000607c880020002000707c88000000eb000b
:1012e000807c880030002000907c8800c0ff2f00a8
:1012f000a07c88000000eb00b07c880060ff2f001d
:10130000c07c880040002000d07c8800b0ff2f0007
:10131000e07c880040012000f07c88000080eb0029
:10132000007d880060012000107d880060fe2f0095
:10133000207d880020002000307d8800c0fc2f0028
:10134000407d880040012000507d880090fe2f00e5
:10135000607d880050052000707d8800c0ff2f0050
:10136000807d880030052000907d880000fa2f00e5
:10137000a07d880060002000b07d8800f0f42f0080
:10138000c07d880010042000d07d880050fb2f0015
:10139000e07d8800a0102000f07d880040ff2f0035
:1013a000007e8800a00f2000107e880010ee2f0025
:1013b000207e880020012000307e8800e0de2f00a3
:1013c000407e8800600c2000507e880080f12f0055
:1013d000607e8800c0352000707e880070fd2f0080
:1013e000807e8800803a2000907e880070b32f00b5
:1013f000a07e880000062000b07e880010022f002a
:10140000c07e880080f52000d07e880080f5200016
:10141000e07e880010022f00f07e88000006200089
:10142000007f880070b32f00107f8800803a200072
:10143000207f880070fd2f00307f8800c03520009d
:10144000407f880080f12f00507f8800600c2000d2
:10145000607f8800e0de2f00707f88002001200080
:10146000807f880010ee2f00907f8800a00f200062
:10147000a07f880040ff2f00b07f8800a0102000d0
:10148000c07f880050fb2f00d07f88001004200010
:10149000e07f8800f0f42f00f07f880060002000db
:1014a0000080880000fa2f0010808800300520009e
:1014b00020808800c0ff2f00308088005005200069
:1014c0004080880090fe2f0050808800400120005e
:1014d00060808800c0fc2f00708088002000200001
:1014e0008080880060fe2f009080880060012000ce
:1014f000a08088000080eb00b080880040012000c0
:10150000c0808800b0ff2f00d080880040002000fd
:10151000e080880060ff2f00f08088000000eb0072
:1015200000818800c0ff2f0010818800300020005b
:10153000208188000000eb0030818800200020001e
:10154000408188000000eb00508188000000eb0023
:10155000608188000000eb00708188000000eb00d3
:10156000808188000000eb00908188000080fa00f4
:10157000000006001400fa00100f98000000eb00b5
:10158000000f78006000b80010079800210798004d
:101590006000b80050079800610798000000eb0059
:1015a000000f78005f0037000000eb003007980064
:1015b000430037003e0090001e0010000000e000d5
:1015c0003b0035003e0090009e00100060052000aa
:1015d000808f50000a003c003e0090001e0010006a
:1015e000700798007e0090008000400040082100b5
:1015f0000080400090007800410798000a00370002
:101600003e0090001e0010007005b10070079800a9
:101610007e0090008000400000b02000008040006c
:1016200090007800410798003e0090008000400044
:1016300040f820000080400010007800cf80de00dd
:1016400050079800610798004e009000cf80de00a0
:101650006e0190000091b90002017800de01900057
:10166000019ab9008401780003014100de01900075
:101670000018b8000101410082007800500798006e
:101680006107980050079800610798001e019000bc
:10169000ae0190005e009000ee009000020040005d
:1016a0008380480010079800210798000100370048
:1016b000000000003e0090000000e80030079800a5
:1016c000be00900070052000808f5000b9ff3400ec
:1016d000600520009e007800808f50000d003400cf
:1016e0001e009000ae009000823e2000030020000b
:1016f00000fc0700000f98001e0078007005b10084
:10170000000040009e089000008040008e0890007d
:10171000010878006000b8001007980021079800c1
:101720001e0fe800600d20009e007800808f5000a2
:101730009dff34000000eb00000f78000c00370024
:10174000910220001e8040008000400000b0200078
:1017500000804000900078001e00780000014000ea
:101760004008210000004100010878001e0fe80039
:10177000600520009e007800808f5000f0ff34004c
:101780000080fa00000006002200fa00c6fe0700f2
:101790006000b80050079800610798000000200022
:1017a0002100200070079800010f98000000200021
:1017b00021002000100f9800210f98006000b80051
:1017c000300f9800410f980090022000303a8800b6
:1017d000213a8000f0f32f0000806000203a88005a
:1017e000213a800000fe2f0000806000203a88002f
:1017f0004827ef001200200080072000a1092000e8
:10180000337420008049780081497800824978004b
:1018100012002000600420007105200023742000c5
:1018200080497800814978008249780000000000f2
:10183000113a800000002700808060000000210035
:10184000808f5000faff3a0000000000113a80003b
:1018500000022000008060000000e000fbff32007a
:10186000f0408000016024006f0407000041800008
:10187000014024004903070000e820004d02070052
:10188000f0408000a50407000041800063030700ca
:101890000000eb00000f78006000b800100798000f
:1018a000210798006000b800500f9800610f980061
:1018b00000000000f0408000dc0407000000e000b1
:1018c000fcff3a00f04080000208200001b0200038
:1018d000a90407006000b8001007980021079800cd
:1018e0006000b800500f9800610f98000000eb00f6
:1018f000300798000000eb00400798000000eb0064
:10190000700f98000000eb00001798000000eb003b
:10191000000f7800070037001e00780080004000ac
:1019200040082100008040008000eb0001087800a2
:101930001e0fe8001e007800e40f5000f6ff340090
:101940000000eb00000f78005f0037000000eb00a4
:1019500030079800430037003e0090001e00100042
:101960000000e0003b0035003e0090009e001000ab
:1019700060052000808f50000a003c003e0090006f
:101980001e001000001798000e109000800040000c
:101990004008210000804000900078004107980036
:1019a0000a0037003e0090001e0010007005b100d4
:1019b000001798000e1090008000400000b020003a
:1019c0000080400090007800410798003e009000a1
:1019d0008000400040f820000080400010007800a7
:1019e000cf80de00500f9800610f98004e009000ed
:1019f000cf80de006e0990000091b90002017800ee
:101a0000de099000019ab9008401780003014100c9
:101a1000de0990000018b800010141008200780042
:101a2000500f9800610f9800500f9800610f9800b8
:101a30001e019000ae0190005e089000ee0890003c
:101a4000020040008380480010079800210798009a
:101a500001003700000000003e0090000000e80098
:101a600030079800be00900070052000808f500065
:101a7000b9ff3400600520009e007800808f500080
:101a80000d0034001e009000ae009000823e200049
:101a90000300200017fb0700700f980091fa2f0039
:101aa0001e8040008000400000c0200000804000f8
:101ab000fe089000010878006000b8001007980048
:101ac000210798001e0fe800600d20009e0078009e
:101ad000808f50009dff34000000eb00000f780065
:101ae0000c003700910220001e8040008000400062
:101af00000b0200000804000900078001e007800b8
:101b00000001400040082100000041000108780069
:101b10001e0fe800600520009e007800808f5000b6
:101b2000f0ff340000000000004180003103070096
:101b30000000e000fcff3a000041800002082000a5
:101b400001c02000db0207000000000059ff370041
:101b500050428800010098000001eb00120098003c
:101b60002200980032009800023220008201b30067
:101b70002200b3001212880045e2a90041a2a90088
:101b80008540a9009540a80041e2a8002c43a80088
:101b9000c642a900ca42a8001e21ef001421ef008e
:101ba00002202000d20888008760a9009760a80062
:101bb0005042800000000600100390000630a6008e
:101bc000020037000000eb00000006000400e00007
:101bd00002003c000000eb000000060005102000a1
:101be00005a0e600041020008002eb0035009800fc
:101bf00024009800800290008003eb00e1f27b005b
:101c00008703e8000402e9000400e000fbff3c0059
:101c10000630a00084ff2f00040363001600980024
:101c20004200980053009800ca42a90064002000b6
:101c3000441288000700780000000600100390009e
:101c40000630a600020037000000eb00000006008e
:101c50000400e00002003c000000eb000000060071
:101c60009540a90045128000ca42a9003500200015
:101c7000451288004002ae00feff3700451280008a
:101c8000431288004002ae00feff3700451280007c
:101c90000280fd00421288004002ae00feff3700c5
:101ca000451280000280fd00421288004002ae0012
:101cb000feff3700451280000003eb008002eb00be
:101cc000451288004002ae00feff37004712800038
:101cd00087707b000603e80004b0e700f8ff3700d8
:101ce000ca42a8008540a9009540a80004007800d9
:101cf00000000600100390000630a6000200370026
:101d00000000eb0000000600230020000198e7001f
:101d10001f0037009540a9004412800003092000ed
:101d2000ca42a900431288004002ae00feff3700fd
:101d3000441280008001eb0035002000431288002f
:101d40004002ae00feff3700441280008502e90029
:101d50000500e000f9ff3c00450020004312880028
:101d60004002ae00feff37004412800004597800a4
:101d70008502e9000500e000f8ff3c00ca42a80027
:101d80008540a9009540a800100020000000060032
:101d9000130020000198e700240037009540a900b7
:101da0004412800063002000ca42a9004312880048
:101db0004002ae00feff3700ca42a8004412800075
:101dc000030620000000000000000000ca42a90035
:101dd000431288004002ae00feff3700ca42a8004e
:101de00044128000ca42a900530020004312880018
:101df0004002ae00feff3700441280008001eb007d
:101e0000431288004002ae00feff370044128000fb
:101e10000400a700faff3700ca42a8008540a900c5
:101e20009540a800100020000000060033002000ac
:101e30000198e700130037009540a900ca42a900a5
:101e40004412800053002000431288004002ae007c
:101e5000feff3700441280008001eb00431288002f
:101e60004002ae00feff37004412800004497800b3
:101e7000ca42a8008540a9009540a8001000200093
:101e800000000600430020000198e7000d00370025
:101e90009540a9004412800063002000ca42a900b6
:101ea000431288004002ae00feff3700ca42a8007d
:101eb000441280008540a9009540a8001000200031
:101ec00000000600530020000198e70019003700c9
:101ed0009540a9004412800003052000ca42a900d1
:101ee000431288004002ae00feff3700ca42a8003d
:101ef0004412800013002000ca42a9004312880047
:101f00004002ae00feff37004412800092017800cc
:101f1000431288004002ae00feff3700ca42a8000c
:101f2000441280008540a9009540a80010002000c0
:101f300000000600930020000198e70037003700fa
:101f40009540a90044128000ca42a9006300200005
:101f5000431288004002ae00feff3700ca42a800cc
:101f600044128000830d20000000000000000000eb
:101f7000ca42a900431288004002ae00feff3700ab
:101f80004412800092019000431288004002ae008b
:101f9000feff370044128000920178000380fd00ac
:101fa000431288004002ae00feff3700441280005a
:101fb0000380fd00431288004002ae00feff3700a0
:101fc00044128000ca42a800000000000000000087
:101fd0000000000053002000ca42a90043128800fc
:101fe0004002ae00feff3700441280008001eb008b
:101ff000431288004002ae00feff3700441280000a
:102000000400a700faff3700ca42a8008540a900d3
:102010009540a80010002000000006000000eb0022
:1020200000000600801f7800811f7800821f780062
:10203000831f7800841f78008540a9004412800027
:102040005042800090009000678160000200e00034
:1020500007003c00ca42a8008100e8001100980077
:1020600023002000ca42a900431288002400370040
:102070006110e10005003c008100e80011009800bb
:10208000d0019000431288001d0037006210e1006b
:1020900006003c008100e80011009800c00190009b
:1020a0000380fd0043128800150037006310e10033
:1020b00005003c008100e80011009800c00190007c
:1020c000431288000e0037006410e1000a003c0053
:1020d0008100e8001100980080019000300290001b
:1020e000e3417a00200290000402e90024009800f5
:1020f0004312880002003700ca42a8001fe1a8006e
:102100004f027800cf0178004f017800cf007800af
:102110004f00780000000600801f7800811f7800c3
:10212000821f7800831f78008760a9001fe1a90043
:102130001421ef0050428000a00090000100e00058
:1021400014003400b00090008100e80031009800d5
:10215000d00190004001900061014100e081490000
:10216000810020000198e6008001eb0053009800f8
:10217000420098009000900082ff2f0081006100d3
:1021800011009800ca42a900630020004312880091
:1021900003003700900090000130a100110098006a
:1021a000cf0178004f017800cf0078004f00780011
:1021b000004006000a00fa00400798000000eb000b
:1021c00030079800a033200010128800c642a900f2
:1021d0002c43a800ca42a80041e2a800ca42a900b4
:1021e000000920004012880000000000001280005a
:1021f000610060000000e000fcff3200401280003f
:10220000000f78004822ef0000000000001280005c
:10221000610060000000e000fcff3200401280001e
:10222000000f78004822ef0000000000001280003c
:10223000610060000000e000fcff320040128000fe
:10224000000f78004822ef0000000000001280001c
:10225000610060000000e000fcff320040128000de
:10226000000f78004822ef000000000000128000fc
:10227000610060000000e000fcff320040128000be
:10228000100798004822ef000000000000128000b4
:10229000610060000000e000fcff3200401280009e
:1022a00020079800ca42a8008540a9009e0090001f
:1022b000f00b2000808f50000c003a00100020002e
:1022c00040418800ce009000e083200020fe0700ff
:1022d0003041880030418000e6004700010178006d
:1022e0005100200083fe0700060037002828ef0079
:1022f00080418000ce0090001df9070080418000e1
:102300003cf907000080fa00000006000000fa0017
:1023100040418000e10f500008003a00000000003a
:10232000304180000001eb001100200071fe070029
:102330000000e000faff32000d003700804180000d
:102340000001eb004100200077fa07008041800087
:102350000001eb001100200073fa070000000000ec
:10236000804180003efa07000000e000fcff3a00d8
:102370000080fa00000006000400fa00008fbe0092
:1023800040418000e10f500005003a0030418000dc
:102390000e0178009100200056fe07000d00370066
:1023a000804180000001eb00410020005efa070040
:1023b000804180000e017800710020005afa070069
:1023c000000000008041800025fa07000000e000c6
:1023d000fcff3a000080fa00000006000a00fa0044
:1023e00010079800210798003207980043079800cb
:1023f0000000eb00000f780040418000e10f50002a
:102400002d003a000f0037004e0090001e025000d1
:102410001e007800be009000808240001e00780000
:102420006101b9001e009000ae0090000201400062
:10243000838148003041800085007800defd070080
:102440001e0f40004e0090009e007800808f5000cc
:10245000edff35001c0037000000000080418000c7
:10246000fff907000000e000fcff3a008041800017
:102470000001eb00410020002bfa07004e00900005
:102480001e0250001e007800be00900080824000b6
:102490001e0078006101b9001e009000ae0090009f
:1024a000020140008381480080418000850078005f
:1024b000e3f807001e0f40004e0090009e007800d9
:1024c000808f5000e4ff35004e0090000080fa003d
:1024d000000006000a00fa00100798002107980083
:1024e00032079800430798000000eb00000f7800c7
:1024f00040418000e10f500015003a000f00370006
:102500004e0090001e0250001e007800be00900099
:10251000808240001e0078006101b9001e0090001a
:10252000ae009000020140008381480030418000ed
:1025300085007800c1fd07001e0f40004e0090008e
:102540009e007800808f5000edff350010003700ae
:102550000000000080418000c1f907000000e00099
:10256000fcff3a00804180004e029000be009000c7
:102570001e019000ae01900030f90700000000003d
:1025800080418000b6f907000000e000fcff3a003f
:102590004e0090000080fa00000006000400fa00df
:1025a000000f7800110798009e00780071418800a4
:1025b0001e0078009e009000010878001e00900028
:1025c00001102000808040001e007800110098005b
:1025d00010012200601c880070002000701c880020
:1025e0001e007800100078008000780000002400b1
:1025f00000805000801c880000182000a01c88006b
:1026000070002000b01c88001021ef000621ef00b0
:102610000c21ef000080fa00000006000200fa0022
:10262000000f78001e0078008000eb002100980069
:102630001e0078008000eb00610098001e0078000a
:1026400001082000410098001e00780001082000c9
:10265000510098001e0078008000eb0031009800c7
:1026600085c0a90095c0a8008de3a8000027200020
:102670006008880080132000000c88008013200070
:10268000100c880060002000200c880011e1a800d8
:102690000080fa00000006000200fa00000f780037
:1026a00011e1a90095c0a9008de3a9000080fa00fe
:1026b000000006000e00fa0040079800510798003d
:1026c000620798004e009000200090000000e0009b
:1026d000030032004e009000100078000200370026
:1026e0004e0090001000900020079800ee0090002f
:1026f00000082000808f50000200340000082000f5
:10270000600798000000eb00000f78002b003700f6
:102710001e00780000004000de00900000804000b5
:102720001000780080007800000028000080400041
:10273000300798003e0090008000eb000227200048
:102740000289b900020178006002b90084017800b2
:1027500003014100032720000300b80001014100ec
:1027600082007800f2ff2f0003002000e1f707004d
:10277000100798009e00900000272000808f5000d6
:1027800002003600f0262000100798001e0090007e
:102790000000e00002003a0010002000100798003e
:1027a0001e00780000004000ae0090000080400055
:1027b0009e009000010878001e0fe8006e00900057
:1027c0009e007800808f5000d1ff35004e009000b1
:1027d000ee009000510098000400fc004e009000b4
:1027e00011002000310098000000fc000080fa0079
:1027f000000006000200fa00000f78001e007800ba
:10280000300090000080fa0000000600800278008e
:1028100001037800820378000700e0001e00340006
:10282000350078000300280083006000c808de003f
:1028300000f0a7000000ea00b3f727000300e10062
:102840000100390003007800430820000300400025
:102850000081cf000b003100930020000281510065
:1028600001003b000001eb00e30141000302de0038
:10287000f3002000030262004411dd000202720036
:10288000010272000480ea00f00fb200005b7800e1
:102890008703e900e2ff3a000000060080027800aa
:1028a00001037800820378000700e000150034007f
:1028b000354078000080ea000308200083006000b3
:1028c00003072000030160004411de000281e800dc
:1028d000f300200003026000700272000402d000c6
:1028e0000402e8000222dd00430820000302520037
:1028f0000170a7000402ea00041b78008703e900c6
:10290000ebff3a0000000600800278000103780027
:10291000820378000700e0002300340035007800cf
:102920000000e00002003a00500520001b003700c4
:102930000300280083006000c808de0000f0a70044
:102940000000ea00f3ff27000300e1000100390066
:10295000030078000081cf00060031006910e1001b
:1029600004003d009300200002815100e30141007a
:10297000020037000001eb00430020000302de00ec
:10298000f3002000030262004411dd000202720025
:1029900001027200530d200003406a00005b7800c2
:1029a0008703e900ddff3a0000000600800278009e
:1029b00001037800820378000700e000190034006a
:1029c0000000eb0035407800530d200000c0690086
:1029d000030820008300600003072000030160005b
:1029e0004411de006f0260004422dd0068004200f6
:1029f0000200e0000200320003102000030040004b
:102a00006110e100020034000201e9000200dd0073
:102a10000170a7000000ea00001b78008703e900ae
:102a2000e7ff3a00000006000400fa00000f7800fb
:102a3000110798009e007800514188001e00780020
:102a40009e009000010878001e0090000008b00071
:102a5000800078001e0078001100980081c3a90052
:102a600081a3a9008183a9008163a900011c8000c2
:102a7000f0fc2f0000806000001c8800011c80001a
:102a8000c0ff2f00008060000010a000001c880024
:102a900083e3a900111c800000f82f000080600073
:102aa000d000b300101c88001e00780010007800d1
:102ab000800078000000240000805000201c880066
:102ac0001e007800100090008000780000002400b4
:102ad00000805000301c880000302000401c88001e
:102ae000f0072000501c8800407420000019880066
:102af0002223ef0000012000201988002823ef0086
:102b00002c03a9003023ef000a21ef0070382100c8
:102b1000700888000080fa00000006000200fa0039
:102b2000000f78001e0078008000eb002100980064
:102b30001e00780011002000310098008480a90058
:102b40009480a80081e3a80021e3a80013e1a80075
:102b50000080fa00000006000200fa00000f780072
:102b60009480a90081e3a90021e3a90013e1a90051
:102b70000080fa00000006000a00fa002007980012
:102b800031079800420798002e0090002000900026
:102b90000000e000030032002e00900010007800da
:102ba000020037002e0090001000900010079800df
:102bb000ce00900000082000808f500002003400fa
:102bc00000082000400798000000eb00000f78008c
:102bd0000b0037001e00780000004000be0090008f
:102be000808040001e007800000040001e01900020
:102bf0000000410010007800800878001e0fe800f7
:102c00004e0090009e007800808f5000f1ff35004c
:102c10000400fc002e0090001100200031009800fc
:102c20000000fc000080fa00000006000200fa002c
:102c3000000f78001e007800300090000080fa003d
:102c4000000006000400fa00cda2a900cde2a90010
:102c5000cdc2a900d1a2a800d1e2a800d1c2a8008b
:102c6000d302a800d322a800e402a900e422a9000c
:102c7000e802a900e822a9002228ef002428ef009a
:102c80002ca3a800c6a2a900caa2a8006000b80090
:102c9000008fbe0005003700000000001200200079
:102ca000030020001e0f41005e974900f07f2000c6
:102cb000010020001e01be00800f5100818f5900cd
:102cc000f5ff34000080fa00000006000200fa0060
:102cd000a116800000102000008060000000e000cd
:102ce00009003a00104180000000e800104188000f
:102cf00010418000ec0f500006003a001000200048
:102d0000000f7800030037002228ef000000eb00de
:102d1000000f78001e0078000080fa000000060016
:102d20000200fa00a1168000002020000080600050
:102d30000000e00009003a00204180000000e800a7
:102d40002041880020418000ec0f500006003a002e
:102d500010002000000f7800030037002428ef0047
:102d60000000eb00000f78001e0078000080fa00e1
:042d70000000060059
:020000040000fa
:102d74002a08000002000000000000002c080000e7
:102d84000200000000000000000b000042060000ea
:102d940000000000004600000002000000000000e7
:102da4000044000000020000000000000042000097
:102db4000001000000000000000900000002000003
:102dc40000000000000800001e00000000000000d9
:102dd4001e08000004000000020000000008340087
:102de400110000002e080000020000000000000096
:102df4002208000004000000000000003208000067
:102e0400180000000000000030080000020000006c
:102e14000200000032080000260800000400000040
:102e2400000000004a08000002000000000000004a
:042e3400000000009a
:020000040000fa
:0200000401f009
:04000800ffff0000f6
:020000040000fa
:0200000401f009
:04000c00a000000050
:020000040000fa
:0200000401f009
:0400100043000000a9
:020000040000fa
:0200000401f009
:040014005f00000089
:00000001FF
